001500753000025931000000081F064387640000000004000000000041494CAPFEE              05000                                                                                                                                                                               000000000                                                                                                                                  Y 
001500753000025931000000081F064387640000000006000000000041494CHARGEFEE           YES                                                                                                                                                                                 000000000                                                                                                                                  Y 
001500753000025931000000081F064387640000000001000000000041494CUENTALOCAL14       097063716                                                                                                                                                                           000000000                                                                                                                                  Y 
001500753000025931000000081F064387640000000002000000000041494FECHADELDIA         JAN 16                                                                                                                                                                              000000000                                                                                                                                  Y 
001500753000025931000000081F064387640000000003000000000041494NOMBRECOMPLETO      MR KITCHENS KEMPER BECKWORTH                                                                                                                                                        000000000                                                                                                                                  Y 
001500753000025931000000081F064387640000000005000000000041494PRODUCTNAME         EVERYDAY ACCOUNT                                                                                                                                                                    000000000                                                                                                                                  Y 
001500753000096258000000081F070007908000000004000000000041495CAPFEE              00000                                                                                                                                                                               000000000                                                                                                                                  Y 
001500753000096258000000081F070007908000000006000000000041495CHARGEFEE           YES                                                                                                                                                                                 000000000                                                                                                                                  Y 
001500753000096258000000081F070007908000000001000000000041495CUENTALOCAL14       097063740                                                                                                                                                                           000000000                                                                                                                                  Y 
001500753000096258000000081F070007908000000002000000000041495FECHADELDIA         JAN 16                                                                                                                                                                              000000000                                                                                                                                  Y 
001500753000096258000000081F070007908000000003000000000041495NOMBRECOMPLETO      MR ALEXANDRA  MENDES  DA SILVA FERREIRA-CARNEY null ARMSTRONG ALEXANDRA  MENDES  DA SILVA FERREIRA-CARNEY                                                                           000000000                                                                                                                                  Y 
001500753000096258000000081F070007908000000005000000000041495PRODUCTNAME         CHOICE CURRENT ACC                                                                                                                                                                  000000000                                                                                                                                  Y 
001500753000112738000000081F022694956000000004000000000041489CAPFEE              05000                                                                                                                                                                               000000000                                                                                                                                  Y 
001500753000112738000000081F022694956000000006000000000041489CHARGEFEE           YES                                                                                                                                                                                 000000000                                                                                                                                  Y 
001500753000112738000000081F022694956000000001000000000041489CUENTALOCAL14       4090523EM                                                                                                                                                                           000000000                                                                                                                                  Y 
001500753000112738000000081F022694956000000002000000000041489FECHADELDIA         JAN 16                                                                                                                                                                              000000000                                                                                                                                  Y 
001500753000112738000000081F022694956000000003000000000041489NOMBRECOMPLETO      MR IRBLESDO 1 LESLIE                                                                                                                                                                000000000                                                                                                                                  Y 
001500753000112738000000081F022694956000000005000000000041489PRODUCTNAME         EVERYDAY ACCOUNT                                                                                                                                                                    000000000                                                                                                                                  Y 
001500753000155048000000081F011205571000000004000000000041490CAPFEE              05000                                                                                                                                                                               000000000                                                                                                                                  Y 
001500753000155048000000081F011205571000000006000000000041490CHARGEFEE           YES                                                                                                                                                                                 000000000                                                                                                                                  Y 
001500753000155048000000081F011205571000000001000000000041490CUENTALOCAL14       097058348                                                                                                                                                                           000000000                                                                                                                                  Y 
001500753000155048000000081F011205571000000002000000000041490FECHADELDIA         JAN 16                                                                                                                                                                              000000000                                                                                                                                  Y 
001500753000155048000000081F011205571000000003000000000041490NOMBRECOMPLETO      MRS GDPR null GDPR                                                                                                                                                                  000000000                                                                                                                                  Y 
001500753000155048000000081F011205571000000005000000000041490PRODUCTNAME         EVERYDAY ACCOUNT                                                                                                                                                                    000000000                                                                                                                                  Y 
001500753000210928000000081F007139907000000004000000000041491CAPFEE              05000                                                                                                                                                                               000000000                                                                                                                                  Y 
001500753000210928000000081F007139907000000006000000000041491CHARGEFEE           YES                                                                                                                                                                                 000000000                                                                                                                                  Y 
001500753000210928000000081F007139907000000001000000000041491CUENTALOCAL14       000000007                                                                                                                                                                           000000000                                                                                                                                  Y 
001500753000210928000000081F007139907000000002000000000041491FECHADELDIA         JAN 16                                                                                                                                                                              000000000                                                                                                                                  Y 
001500753000210928000000081F007139907000000003000000000041491NOMBRECOMPLETO      MR QUIMPER null 10/1/2000                                                                                                                                                           000000000                                                                                                                                  Y 
001500753000210928000000081F007139907000000005000000000041491PRODUCTNAME         ZERO CURRENT ACCOUNT                                                                                                                                                                000000000                                                                                                                                  Y 
001500753000237302000000081F047042993000000004000000000041492CAPFEE              00000                                                                                                                                                                               000000000                                                                                                                                  Y 
001500753000237302000000081F047042993000000006000000000041492CHARGEFEE           YES                                                                                                                                                                                 000000000                                                                                                                                  Y 
001500753000237302000000081F047042993000000001000000000041492CUENTALOCAL14       097046759                                                                                                                                                                           000000000                                                                                                                                  Y 
001500753000237302000000081F047042993000000002000000000041492FECHADELDIA         JAN 16                                                                                                                                                                              000000000                                                                                                                                  Y 
001500753000237302000000081F047042993000000003000000000041492NOMBRECOMPLETO      MR LEON'S MURU'S CLARKE'S                                                                                                                                                           000000000                                                                                                                                  Y 
001500753000237302000000081F047042993000000005000000000041492PRODUCTNAME         123 CURRENT ACCOUNT                                                                                                                                                                 000000000                                                                                                                                  Y 
001500753000258507000000081F047042993000000004000000000041492CAPFEE              00000                                                                                                                                                                               000000000                                                                                                                                  Y 
001500753000258507000000081F047042993000000006000000000041492CHARGEFEE           YES                                                                                                                                                                                 000000000                                                                                                                                  Y 
001500753000258507000000081F047042993000000001000000000041492CUENTALOCAL14       097046769                                                                                                                                                                           000000000                                                                                                                                  Y 
001500753000258507000000081F047042993000000002000000000041492FECHADELDIA         JAN 16                                                                                                                                                                              000000000                                                                                                                                  Y 
001500753000258507000000081F047042993000000003000000000041492NOMBRECOMPLETO      MR LEON'S MURU'S CLARKE'S                                                                                                                                                           000000000                                                                                                                                  Y 
001500753000258507000000081F047042993000000005000000000041492PRODUCTNAME         123 CURRENT ACCOUNT                                                                                                                                                                 000000000                                                                                                                                  Y 
001500753000326735000000081F047042993000000004000000000041492CAPFEE              00000                                                                                                                                                                               000000000                                                                                                                                  Y 
001500753000326735000000081F047042993000000006000000000041492CHARGEFEE           YES                                                                                                                                                                                 000000000                                                                                                                                  Y 
001500753000326735000000081F047042993000000001000000000041492CUENTALOCAL14       097063759                                                                                                                                                                           000000000                                                                                                                                  Y 
001500753000326735000000081F047042993000000002000000000041492FECHADELDIA         JAN 16                                                                                                                                                                              000000000                                                                                                                                  Y 
001500753000326735000000081F047042993000000003000000000041492NOMBRECOMPLETO      MR LEON'S MURU'S CLARKE'S                                                                                                                                                           000000000                                                                                                                                  Y 
001500753000326735000000081F047042993000000005000000000041492PRODUCTNAME         PRIVATE CURRENT ACCOUNT                                                                                                                                                             000000000                                                                                                                                  Y 
